:0A0C0700EF1F70011E144E70F7225B
:100BC800AD07AC06ED1DAE0470011C4E60097F7DBB
:080BD8007E00120C0780ED22E3
:1003A900202020416464202066696E6765722020E0
:1003B900002020202049442069732020202020206B
:1003C900200020506C65617365202066696E676541
:1003D90072200020202020202020202020202020E2
:1003E900202020005375636365737366756C2065FF
:1003F9006E74727900205365617263682073756346
:1004090063657373200020536561726368202066F9
:1004190061696C65642000202020656D7074792005
:10042900616C6C2020202000202020596573206FEA
:1004390072206E6F203F202000202020656D70748F
:1004490079696E67202020202000202020416C6CD3
:1004590020656D70747920202020004C6F616469DB
:100469006E6700446F636B696E6720206661696C13
:1004790075726500446F636B696E672020737563DD
:1004890063657373000100071300000000001BEF90
:1004990001FFFFFFFF0100030100050100031D002B
:1004A900210100080401000003E700F80100080425
:1004B90001000000130021010004020100080100ED
:1004C90004020200090100030500090100030D00EF
:0704D900110000000000000B
:0F0AB50002080000090A0100060601000B0019E3
:100A6500E4F53BF53C7498253CF5827404353BF57B
:100A750083E493FF120C11053CE53C7002053BC372
:0A0A85009406E53B6480948040DB9A
:010A8F002244
:10097E00E4F534F535120A65E4F534F535748E2553
:10098E0035F58274043534F583E493FF120C1105AA
:10099E0035E53570020534C3940AE53464809480DD
:0209AE0040DB2C
:0109B0002224
:020B10008F381C
:100B1200E4F539E539C39538500E120C19741325D2
:080B220039F8A607053980EB44
:010B2A0022A8
:100B4600120A65E4F538E53890049E93FF120C11FD
:090B56000538E538C3940640EDB2
:010B5F002273
:100B6000120A65E4F538E5389004C093FF120C11C1
:090B70000538E538C3940740ED97
:010B79002259
:1009B100E4F536E53690049893FF120C110536E5FF
:1009C10036C3940640EDE4F536E5369004C793FF4F
:0C09D100120C110536E536C3940740ED0A
:0109DD0022F7
:100B7A00120A65E4F538E5389004AA93FF120C11BD
:090B8A000538E538C3940B40ED79
:010B9300223F
:100B9400120A65E4F536E5369004CE93FF120C1183
:090BA4000536E536C3940640ED68
:010BAD002225
:1009DE00E4F534E53490049893FF120C110534E5D8
:1009EE0034C3940640EDE4F534E5349004D493FF1B
:0C09FE00120C110534E534C3940640EDE2
:010A0A0022C9
:02084900AB07FB
:10084B00E4F539F538F537F536EEF50FEBF510E441
:10085B00F53A740A253AF8E6FFE4FCFDFEE5392F7C
:10086B00F539EE3538F538ED3537F537EC3536F5F6
:10087B0036053AE53AB407DAE4FFE538FEE4FDFC69
:10088B0078081203968F11E539FF8F12120A65E46F
:10089B00F53A740A253AF8E6FF120C11053AE53AD7
:0508AB00C3940940EDBB
:0108B0002225
:1000030078337C007D007BFF7A0479DA7E007F03FE
:100013001202EE7F01120BB7E4F508F5097BFF7AB4
:100023000379A9E4F53C753D107F80120A387BFF04
:100033007A0379BAE4F53C753D107FC0120A382083
:10004300960830960302021D80F820941C3094FD1C
:10005300E509B4E80CE508B40307E4F508F50980FD
:10006300080509E509700205087FCA120BB7AE0837
:10007300AF097C007D64120341EF2430FF120BF6BD
:10008300AE08AF097C007D641203417E007F0ACF76
:10009300CDCFCECCCE120341EF2430FF120BF6AE00
:1000A30008AF097C007D641203417E007F0ACFCD37
:1000B300CFCECCCE120341ED2430FF120BF6309598
:1000C300030200203095FD7BFF7A0379CBE4F53CF6
:1000D300753D107F80120A387BFF7A0379DCE4F5E3
:1000E3003C753D107FC0120A382096030200202081
:1000F300960830960302002080F8120B467F0C12FC
:100103000B10E51C70E37F64FE120BC8120B607FBB
:100113000C120B107BFF7A0379EDE4F53C753D106F
:100123007F80120A387F01120A907FE87E03120B48
:10013300C87BFF7A0379CBE4F53C753D107F8012D1
:100143000A387BFF7A0379DCE4F53C753D107FC008
:10015300120A3820960830960302002080F8120B0A
:10016300467F0C120B10E51C70E97FC8FE120BC80A
:100173007BFF7A0379EDE4F53C753D107F80120A2D
:10018300387BFF7A0379BAE4F53C753D107FC012E2
:100193000A387FCA120BB7AE08AF097C007D641220
:1001A3000341EF2430FF120BF6AE08AF097C007D4C
:1001B300641203417E007F0ACFCDCFCECCCE120393
:1001C30041EF2430FF120BF6AE08AF097C007D64CB
:1001D3001203417E007F0ACFCDCFCECCCE12034196
:1001E300ED2430FF120BF61209B17F0C120B101223
:1001F3000B947F0C120B10AF09AE081208497F0C49
:10020300120B107F01120A907FE87E03120BC805C0
:0A02130009E5097002050802002049
:01021D0022BE
:1004E000E4F533F53478357C00FD7BFF7A0479DD63
:1004F000FE7F031202EE7BFF7A0379CBE4F53C75B5
:100500003D107F80120A387BFF7A0379DCE4F53CEA
:10051000753D107FC0120A38120B467F0C120B106B
:10052000E51C60030206017F64FE120BC8120B601B
:100530007F0C120B10120B7A7F10120B10E51C7B34
:10054000FF60030205DC7A0379FEF53C753D107F00
:1005500080120A387BFF7A0379BAE4F53C753D10C6
:100560007FC0120A387F01120A90AF1DEFFEAD1E48
:100570007C00E42DF534EC3EF5337FCA120BB7AEA8
:1005800033AF347C007D64120341EF2430FF120B43
:10059000F6AE33AF347C007D641203417E007F0AE7
:1005A000CFCDCFCECCCE120341EF2430FF120BF6CD
:1005B000AE33AF347C007D641203417E007F0ACFEE
:1005C000CDCFCECCCE120341ED2430FF120BF6C2BC
:1005D000B77FB87E0B120BC8D2B780257A04790F8B
:1005E000E4F53C753D107F80120A387BFF7A037971
:1005F000DCE4F53C753D107FC0120A387F03120A17
:07060000903096030204F69E
:0106070022D0
:10071A00E4F5337BFF7A047920F53C753D107F8040
:10072A00120A387BFF7A047931E4F53C753D107F73
:10073A00C0120A382095783095FD7BFF7A047942F9
:10074A00E4F53C753D107F80120A387BFF7A037905
:10075A00DCE4F53C753D107FC0120A387F2C7E011F
:10076A00120BC87FC0120BB7E4F5337F2A120BF6BF
:10077A007F647E00120BC80533E533C3941040EB47
:10078A001209DE7F0C120B107BFF7A047953E4F511
:10079A003C753D107F80120A387BFF7A0379DCE4CE
:1007AA00F53C753D107FC0120A387F03020A90207B
:0207BA00968225
:0107BC00221A
:1008B100E4F533751C017BFF7A047964F53C753DE1
:1008C100077FC0120A38E4F5337F2A120BF67FC87E
:1008D1007E00120BC80533E533C3940840EB7BFF60
:1008E1007A04796CE4F53C753D107FC0120A381228
:1008F100097E7F0C120B10E51C70107BFF7A0479C6
:0B0901007DF53C753D107FC0120A38E8
:01090C0022C8
:070C2100D294D295D2962275
:10090D0046696E6765727072696E74205465737492
:10091D000020207365617263682066696E67657279
:10092D0020002020416464202020202064656C6517
:09093D00746500202A002020004E
:10060800120A0B7BFF7A09790DE4F53C753D107FE2
:1006180080120A38120BE0120C217FC87E00120BE0
:10062800C81208B17FE87E03120BC87BFF7A0979EC
:100638001EE4F53C753D107F80120A387BFF7A096D
:10064800792FE4F53C753D107FC0120A38E54770F4
:10065800187BFF7A097940F53C753D027F80120AC4
:10066800387BFF7A097943801CE547640170297B50
:10067800FF7A097943F53C753D027F80120A387B81
:10068800FF7A097940E4F53C753D027FC0120A38CB
:100698007BFF7A097943802DE547640270327BFF3E
:1006A8007A097943F53C753D027F80120A387BFF51
:1006B8007A097943E4F53C753D027FC0120A387B1C
:1006C800FF7A097940E4F53C753D027FC8120A3883
:1006D80020951C3095FDE54714600C14600E24022B
:1006E800700D1204E08008120003800312071A201C
:1006F80094163094FDD3E54764809482500A0547E8
:10070800E547B40303E4F5477F647E00120BC80293
:020718000633A6
:100BE000438780759850438920758BFF758DFFC2B0
:060BF000ABD28ED2AF2251
:080C11008F993099FDC2992270
:070C19003098FDC298AF996D
:010C200022B1
:020A90008F389D
:100A9200E4F539F539E539C395385016C2907FC867
:100AA2007E00120BC8D2907FC87E00120BC8053997
:020AB20080E3DF
:010AB400221F
:100946002020D6B8CEC6CAB6B1F0CFB5CDB30020FA
:1009560020312ECCEDBCD3D6B8CEC6002020322E08
:10096600CBD1CBF7D6B8CEC6002020332EC7E5BFF5
:08097600D5D6B8CEC6BFE200E1
:100AC400014700014800083F094609550962096FBA
:0F0AF300C2A67F0A7E00120B02D2A77F0A7E00E6
:0E0B0200EF1FAC0670011E4C60030080F32252
:100AD500EF1FAA0670011E4A6013E4FCFDC3ED94E6
:0D0AE50058EC940250EA0DBD00010C80F0A9
:010AF20022E1
:090BAE007F057E00120AD57F3894
:100BB700AD07C2A7C2A5120AF38D80120AFEC2A70B
:010BC700220B
:100BF600AD07C2A7D2A5120AF38D80120AFEC2A7BC
:010C060022CB
:030B2B00120BB7F3
:100B2E007580FFC2A7C2A5D2A6120AF5AD80120A21
:080B3E00FEC2A7ED20E7EC2246
:100A0B007F0F120BB0120BAE120BAE120B2E7F38E8
:100A1B00120B2B7F08120B2B7F01120BB7120B2E15
:0D0A2B007F06120BB7120B2E7F0C020BB7CB
:020A38008F38F5
:100A3A00120B2EAF38120BB7E4F53EE53EC3953DD7
:100A4A005018120B2EE53E253CF582E433F583124D
:0A0A5A000314FF120BF6053E80E1C5
:010A6400226F
:030000000207BD37
:0C07BD00787FE4F6D8FD7581480208043E
:10021E00E709F608DFFA8046E709F208DFFA803EC2
:10022E0088828C83E709F0A3DFFA8032E309F608AF
:10023E00DFFA8078E309F208DFFA807088828C8317
:10024E00E309F0A3DFFA806489828A83E0A3F608CB
:10025E00DFFA805889828A83E0A3F208DFFA804CA5
:10026E0080D280FA80C680D4806980F2803380107C
:10027E0080A680EA809A80A880DA80E280CA8033E5
:10028E0089828A83ECFAE493A3C8C582C8CCC5835D
:10029E00CCF0A3C8C582C8CCC583CCDFE9DEE7802D
:1002AE000D89828A83E493A3F608DFF9ECFAA9F0AC
:1002BE00EDFB2289828A83ECFAE0A3C8C582C8CC02
:1002CE00C583CCF0A3C8C582C8CCC583CCDFEADE1B
:1002DE00E880DB89828A83E493A3F208DFF980CC7D
:1002EE0088F0EF60010E4E60C388F0ED2402B40476
:1002FE000050B9F582EB2402B4040050AF2323451D
:06030E00822390026E73D1
:10031400BB010CE58229F582E5833AF583E022509E
:1003240006E92582F8E622BBFE06E92582F8E222E8
:0D033400E58229F582E5833AF583E4932202
:10034100BC000BBE0029EF8DF084FFADF022E4CCA0
:10035100F875F008EF2FFFEE33FEEC33FCEE9DEC69
:10036100984005FCEE9DFE0FD5F0E9E4CEFD22EDAF
:10037100F8F5F0EE8420D21CFEADF075F008EF2FF9
:10038100FFED33FD4007985006D5F0F222C398FDEA
:050391000FD5F0EA2287
:10039600E8600FECC313FCED13FDEE13FEEF13FF45
:0303A600D8F12269
:1007C900020608E493A3F8E493A34003F68001F238
:1007D90008DFF48029E493A3F85407240CC8C33331
:1007E900C4540F4420C8834004F456800146F6DF00
:1007F900E4800B0102040810204080900AB5E47ED1
:10080900019360BCA3FF543F30E509541FFEE493F4
:10081900A360010ECF54C025E060A840B8E493A3BB
:10082900FAE493A3F8E493A3C8C582C8CAC583CAE6
:10083900F0A3C8C582C8CAC583CADFE9DEE780BE9E
:010AD4000021
:00000001FF
